{
  "contractName": "KYCValidatorChainlink",
  "abi": [
    {
      "inputs": [],
      "stateMutability": "payable",
      "type": "constructor"
    },
    {
      "anonymous": false,
      "inputs": [
        {
          "indexed": true,
          "internalType": "bytes32",
          "name": "id",
          "type": "bytes32"
        }
      ],
      "name": "ChainlinkCancelled",
      "type": "event"
    },
    {
      "anonymous": false,
      "inputs": [
        {
          "indexed": true,
          "internalType": "bytes32",
          "name": "id",
          "type": "bytes32"
        }
      ],
      "name": "ChainlinkFulfilled",
      "type": "event"
    },
    {
      "anonymous": false,
      "inputs": [
        {
          "indexed": true,
          "internalType": "bytes32",
          "name": "id",
          "type": "bytes32"
        }
      ],
      "name": "ChainlinkRequested",
      "type": "event"
    },
    {
      "anonymous": false,
      "inputs": [
        {
          "indexed": false,
          "internalType": "string",
          "name": "result",
          "type": "string"
        }
      ],
      "name": "logAPIResult",
      "type": "event"
    },
    {
      "anonymous": false,
      "inputs": [
        {
          "indexed": false,
          "internalType": "address",
          "name": "owner",
          "type": "address"
        }
      ],
      "name": "logGetOwner",
      "type": "event"
    },
    {
      "anonymous": false,
      "inputs": [
        {
          "indexed": false,
          "internalType": "string",
          "name": "query",
          "type": "string"
        }
      ],
      "name": "logQuery",
      "type": "event"
    },
    {
      "anonymous": false,
      "inputs": [
        {
          "indexed": false,
          "internalType": "bytes32",
          "name": "queryId",
          "type": "bytes32"
        }
      ],
      "name": "logRequestId",
      "type": "event"
    },
    {
      "anonymous": false,
      "inputs": [
        {
          "indexed": false,
          "internalType": "address",
          "name": "addr",
          "type": "address"
        }
      ],
      "name": "logRetrieveKYCStart",
      "type": "event"
    },
    {
      "stateMutability": "payable",
      "type": "fallback"
    },
    {
      "inputs": [],
      "name": "result",
      "outputs": [
        {
          "internalType": "bytes32",
          "name": "",
          "type": "bytes32"
        }
      ],
      "stateMutability": "view",
      "type": "function"
    },
    {
      "inputs": [],
      "name": "resultStr",
      "outputs": [
        {
          "internalType": "string",
          "name": "",
          "type": "string"
        }
      ],
      "stateMutability": "view",
      "type": "function"
    },
    {
      "inputs": [
        {
          "internalType": "bytes32",
          "name": "",
          "type": "bytes32"
        }
      ],
      "name": "validIds",
      "outputs": [
        {
          "internalType": "address",
          "name": "",
          "type": "address"
        }
      ],
      "stateMutability": "view",
      "type": "function"
    },
    {
      "inputs": [
        {
          "internalType": "address",
          "name": "",
          "type": "address"
        }
      ],
      "name": "validatorMap",
      "outputs": [
        {
          "internalType": "string",
          "name": "",
          "type": "string"
        }
      ],
      "stateMutability": "view",
      "type": "function"
    },
    {
      "stateMutability": "payable",
      "type": "receive"
    },
    {
      "inputs": [],
      "name": "getOwner",
      "outputs": [
        {
          "internalType": "address",
          "name": "",
          "type": "address"
        }
      ],
      "stateMutability": "nonpayable",
      "type": "function"
    },
    {
      "inputs": [
        {
          "internalType": "address",
          "name": "oracle",
          "type": "address"
        },
        {
          "internalType": "string",
          "name": "jobId",
          "type": "string"
        },
        {
          "internalType": "address",
          "name": "targetAddr",
          "type": "address"
        }
      ],
      "name": "retrieveKYC",
      "outputs": [],
      "stateMutability": "payable",
      "type": "function"
    },
    {
      "inputs": [
        {
          "internalType": "address",
          "name": "targetAddr",
          "type": "address"
        }
      ],
      "name": "hasKYC",
      "outputs": [
        {
          "internalType": "string",
          "name": "",
          "type": "string"
        }
      ],
      "stateMutability": "view",
      "type": "function"
    },
    {
      "inputs": [
        {
          "internalType": "address",
          "name": "oracle",
          "type": "address"
        },
        {
          "internalType": "string",
          "name": "jobId",
          "type": "string"
        },
        {
          "internalType": "address",
          "name": "targetAddr",
          "type": "address"
        }
      ],
      "name": "retrieveKYCData",
      "outputs": [
        {
          "internalType": "bytes32",
          "name": "requestId",
          "type": "bytes32"
        }
      ],
      "stateMutability": "nonpayable",
      "type": "function"
    },
    {
      "inputs": [
        {
          "internalType": "bytes32",
          "name": "requestId",
          "type": "bytes32"
        },
        {
          "internalType": "bytes32",
          "name": "data",
          "type": "bytes32"
        }
      ],
      "name": "fulfillBytes",
      "outputs": [],
      "stateMutability": "nonpayable",
      "type": "function"
    },
    {
      "inputs": [
        {
          "internalType": "string",
          "name": "source",
          "type": "string"
        }
      ],
      "name": "stringToBytes32",
      "outputs": [
        {
          "internalType": "bytes32",
          "name": "myResult",
          "type": "bytes32"
        }
      ],
      "stateMutability": "pure",
      "type": "function"
    },
    {
      "inputs": [],
      "name": "withdrawLink",
      "outputs": [],
      "stateMutability": "nonpayable",
      "type": "function"
    },
    {
      "inputs": [
        {
          "internalType": "address",
          "name": "account",
          "type": "address"
        }
      ],
      "name": "getChecksum",
      "outputs": [
        {
          "internalType": "string",
          "name": "accountChecksum",
          "type": "string"
        }
      ],
      "stateMutability": "pure",
      "type": "function"
    },
    {
      "inputs": [
        {
          "internalType": "address",
          "name": "account",
          "type": "address"
        }
      ],
      "name": "getChecksumCapitalizedCharacters",
      "outputs": [
        {
          "internalType": "bool[40]",
          "name": "characterCapitalized",
          "type": "bool[40]"
        }
      ],
      "stateMutability": "pure",
      "type": "function"
    },
    {
      "inputs": [
        {
          "internalType": "string",
          "name": "accountChecksum",
          "type": "string"
        }
      ],
      "name": "isChecksumValid",
      "outputs": [
        {
          "internalType": "bool",
          "name": "ok",
          "type": "bool"
        }
      ],
      "stateMutability": "pure",
      "type": "function"
    }
  ],
  "bytecode": "0x6080604052600160045533600a60006101000a81548173ffffffffffffffffffffffffffffffffffffffff021916908373ffffffffffffffffffffffffffffffffffffffff1602179055506200005a6200006f60201b60201c565b670de0b6b3a7640000600b81905550620001f7565b6200011573c89bd4e1632d3a43cb03aaad5262cbe4038bc57173ffffffffffffffffffffffffffffffffffffffff166338cc48316040518163ffffffff1660e01b815260040160206040518083038186803b158015620000ce57600080fd5b505afa158015620000e3573d6000803e3d6000fd5b505050506040513d601f19601f8201168201806040525081019062000109919062000172565b6200011760201b60201c565b565b80600260006101000a81548173ffffffffffffffffffffffffffffffffffffffff021916908373ffffffffffffffffffffffffffffffffffffffff16021790555050565b6000815190506200016c81620001dd565b92915050565b6000602082840312156200018b576200018a620001d8565b5b60006200019b848285016200015b565b91505092915050565b6000620001b182620001b8565b9050919050565b600073ffffffffffffffffffffffffffffffffffffffff82169050919050565b600080fd5b620001e881620001a4565b8114620001f457600080fd5b50565b612f1980620002076000396000f3fe6080604052600436106100e15760003560e01c8063893d20e81161007f578063bfc9f1ce11610059578063bfc9f1ce146102cf578063c56be4631461030c578063cfb5192814610349578063d41b2a1c14610386576100e8565b8063893d20e8146102505780638dc654a21461027b57806391503c7614610292576100e8565b806359a6c94b116100bb57806359a6c94b146101a1578063612fc6a8146101bd57806365372147146101e85780637cd6f8ff14610213576100e8565b806318d50d33146100ea57806334335472146101275780635249e86214610164576100e8565b366100e857005b005b3480156100f657600080fd5b50610111600480360381019061010c9190611fc6565b6103af565b60405161011e91906125a4565b60405180910390f35b34801561013357600080fd5b5061014e60048036038101906101499190611fc6565b61044f565b60405161015b9190612552565b60405180910390f35b34801561017057600080fd5b5061018b60048036038101906101869190611fc6565b610467565b60405161019891906125a4565b60405180910390f35b6101bb60048036038101906101b69190611ff3565b610538565b005b3480156101c957600080fd5b506101d261060d565b6040516101df91906125a4565b60405180910390f35b3480156101f457600080fd5b506101fd61069b565b60405161020a9190612589565b60405180910390f35b34801561021f57600080fd5b5061023a60048036038101906102359190611fc6565b6106a1565b60405161024791906125a4565b60405180910390f35b34801561025c57600080fd5b506102656106b3565b6040516102729190612474565b60405180910390f35b34801561028757600080fd5b50610290610736565b005b34801561029e57600080fd5b506102b960048036038101906102b4919061208f565b610738565b6040516102c69190612474565b60405180910390f35b3480156102db57600080fd5b506102f660048036038101906102f191906120fc565b61076b565b604051610303919061256e565b60405180910390f35b34801561031857600080fd5b50610333600480360381019061032e9190611ff3565b6107c2565b6040516103409190612589565b60405180910390f35b34801561035557600080fd5b50610370600480360381019061036b9190612149565b610930565b60405161037d9190612589565b60405180910390f35b34801561039257600080fd5b506103ad60048036038101906103a891906120bc565b61095a565b005b600860205280600052604060002060009150905080546103ce90612b37565b80601f01602080910402602001604051908101604052809291908181526020018280546103fa90612b37565b80156104475780601f1061041c57610100808354040283529160200191610447565b820191906000526020600020905b81548152906001019060200180831161042a57829003601f168201915b505050505081565b610457611ce7565b61046082610b2d565b9050919050565b6060600860008373ffffffffffffffffffffffffffffffffffffffff1673ffffffffffffffffffffffffffffffffffffffff16815260200190815260200160002080546104b390612b37565b80601f01602080910402602001604051908101604052809291908181526020018280546104df90612b37565b801561052c5780601f106105015761010080835404028352916020019161052c565b820191906000526020600020905b81548152906001019060200180831161050f57829003601f168201915b50505050509050919050565b60006105458484846107c2565b9050816009600083815260200190815260200160002060006101000a81548173ffffffffffffffffffffffffffffffffffffffff021916908373ffffffffffffffffffffffffffffffffffffffff1602179055507f53ef5bc543570e3cfbd5e02a558560bf7d19b2bccb9e54c032000038e3812a5c826040516105c89190612474565b60405180910390a17ffa155152629fe765c9a371123610cd253bdbf8d148f4bb351c23349cb5d430c9816040516105ff9190612589565b60405180910390a150505050565b6007805461061a90612b37565b80601f016020809104026020016040519081016040528092919081815260200182805461064690612b37565b80156106935780601f1061066857610100808354040283529160200191610693565b820191906000526020600020905b81548152906001019060200180831161067657829003601f168201915b505050505081565b60065481565b60606106ac82610cee565b9050919050565b60007fa473875013ab62eb7f15ae95e4e7ae20ab8fcd3be95643bebcda5fc3a7d113ca600a60009054906101000a900473ffffffffffffffffffffffffffffffffffffffff166040516107069190612474565b60405180910390a1600a60009054906101000a900473ffffffffffffffffffffffffffffffffffffffff16905090565b565b60096020528060005260406000206000915054906101000a900473ffffffffffffffffffffffffffffffffffffffff1681565b60006107ba83838080601f016020809104026020016040519081016040528093929190818152602001838380828437600081840152601f19601f82011690508083019250505050505050610f3e565b905092915050565b60008060001b60068190555060006107ea6107dc85610930565b3063d41b2a1c60e01b611080565b905060006107f784610cee565b6040516020016108079190612452565b60405160208183030381529060405290507f18d7185daabaec12aeca0c54a5d3a37eda3c6bb0b360ef3688245118e7a45dfd8160405161084791906125a4565b60405180910390a16108996040518060400160405280600381526020017f676574000000000000000000000000000000000000000000000000000000000081525082846110b19092919063ffffffff16565b6109186040518060400160405280600481526020017f70617468000000000000000000000000000000000000000000000000000000008152506040518060400160405280600681526020017f6861734b59430000000000000000000000000000000000000000000000000000815250846110b19092919063ffffffff16565b6109258683600b546110e4565b925050509392505050565b60008082905060008151141561094c576000801b915050610955565b60208301519150505b919050565b816005600082815260200190815260200160002060009054906101000a900473ffffffffffffffffffffffffffffffffffffffff1673ffffffffffffffffffffffffffffffffffffffff163373ffffffffffffffffffffffffffffffffffffffff16146109fc576040517f08c379a00000000000000000000000000000000000000000000000000000000081526004016109f3906125e6565b60405180910390fd5b6005600082815260200190815260200160002060006101000a81549073ffffffffffffffffffffffffffffffffffffffff0219169055807f7cc135e0cebb02c3480ae5d74d377283180a2601f8f644edf7987b009316c63a60405160405180910390a28160068190555081604051602001610a7791906123dd565b60405160208183030381529060405260079080519060200190610a9b929190611d0a565b506007600860006009600087815260200190815260200160002060009054906101000a900473ffffffffffffffffffffffffffffffffffffffff1673ffffffffffffffffffffffffffffffffffffffff1673ffffffffffffffffffffffffffffffffffffffff168152602001908152602001600020908054610b1c90612b37565b610b27929190611d90565b50505050565b610b35611ce7565b60008260601b90506000610b4882611104565b604051602001610b58919061243b565b60405160208183030381529060405280519060200120905060008060008060005b601460ff16811015610ce2576010878260148110610b9a57610b99612d0a565b5b1a60f81b60f81c610bab9190612c4c565b9350601084888360148110610bc357610bc2612d0a565b5b1a60f81b60f81c610bd49190612a00565b610bde9190612795565b94506010868260208110610bf557610bf4612d0a565b5b1a60f81b60f81c610c069190612c4c565b9150601082878360208110610c1e57610c1d612d0a565b5b1a60f81b60f81c610c2f9190612a00565b610c399190612795565b925060098560ff16118015610c51575060078360ff16115b88826002610c5f9190612937565b60288110610c7057610c6f612d0a565b5b60200201901515908115158152505060098460ff16118015610c95575060078260ff16115b886001836002610ca59190612937565b610caf91906126d7565b60288110610cc057610cbf612d0a565b5b6020020190151590811515815250508080610cda90612b9a565b915050610b79565b50505050505050919050565b606060008260601b90506000602867ffffffffffffffff811115610d1557610d14612d39565b5b6040519080825280601f01601f191660200182016040528015610d475781602001600182028036833780820191505090505b5090506000806000806000806000610d5e8b610b2d565b905060005b601460ff16811015610f2c57806013610d7c91906129cc565b6008610d889190612937565b6002610d949190612819565b8a60601c73ffffffffffffffffffffffffffffffffffffffff16610db89190612764565b9750601088610dc79190612795565b9650866010610dd69190612991565b88610de19190612a00565b955081816002610df19190612937565b60288110610e0257610e01612d0a565b5b60200201519450816001826002610e199190612937565b610e2391906126d7565b60288110610e3457610e33612d0a565b5b60200201519350610e4587866112f1565b92508287610e53919061272d565b60f81b89826002610e649190612937565b81518110610e7557610e74612d0a565b5b60200101907effffffffffffffffffffffffffffffffffffffffffffffffffffffffffffff1916908160001a905350610eae86856112f1565b92508286610ebc919061272d565b60f81b896001836002610ecf9190612937565b610ed991906126d7565b81518110610eea57610ee9612d0a565b5b60200101907effffffffffffffffffffffffffffffffffffffffffffffffffffffffffffff1916908160001a9053508080610f2490612b9a565b915050610d63565b50879950505050505050505050919050565b600080610f4a83611323565b9050600073ffffffffffffffffffffffffffffffffffffffff168173ffffffffffffffffffffffffffffffffffffffff16141561101a57600083905060005b8151811015611017577f3000000000000000000000000000000000000000000000000000000000000000828281518110610fc657610fc5612d0a565b5b602001015160f81c60f81b7effffffffffffffffffffffffffffffffffffffffffffffffffffffffffffff191614611004576000935050505061107b565b808061100f90612b9a565b915050610f89565b50505b600061102582610cee565b905083604051602001611038919061243b565b604051602081830303815290604052805190602001208160405160200161105f919061243b565b6040516020818303038152906040528051906020012014925050505b919050565b611088611e1d565b611090611e1d565b6110a785858584611568909392919063ffffffff16565b9150509392505050565b6110c882846080015161161890919063ffffffff16565b6110df81846080015161161890919063ffffffff16565b505050565b60006110fb8484846001634042994660e01b61163d565b90509392505050565b60606000602867ffffffffffffffff81111561112357611122612d39565b5b6040519080825280601f01601f1916602001820160405280156111555781602001600182028036833780820191505090505b509050600080600080600090505b601460ff168110156112e45780601361117c91906129cc565b60086111889190612937565b60026111949190612819565b8760601c73ffffffffffffffffffffffffffffffffffffffff166111b89190612764565b93506010846111c79190612795565b92508260106111d69190612991565b846111e19190612a00565b9150600a8360ff16106111f55760576111f8565b60305b83611203919061272d565b60f81b858260026112149190612937565b8151811061122557611224612d0a565b5b60200101907effffffffffffffffffffffffffffffffffffffffffffffffffffffffffffff1916908160001a905350600a8260ff1610611266576057611269565b60305b82611274919061272d565b60f81b8560018360026112879190612937565b61129191906126d7565b815181106112a2576112a1612d0a565b5b60200101907effffffffffffffffffffffffffffffffffffffffffffffffffffffffffffff1916908160001a90535080806112dc90612b9a565b915050611163565b5083945050505050919050565b6000600a8360ff161015611308576030905061131d565b8115611317576037905061131c565b605790505b5b92915050565b6000808290506000601467ffffffffffffffff81111561134657611345612d39565b5b6040519080825280601f01601f1916602001820160405280156113785781602001600182028036833780820191505090505b509050600080600060288551141561155d5760005b602881101561152f578581815181106113a9576113a8612d0a565b5b602001015160f81c60f81b60f81c935060308460ff1610156113d45760009650505050505050611563565b8360ff1660391080156113ea575060418460ff16105b156113fe5760009650505050505050611563565b8360ff166046108015611414575060618460ff16105b156114285760009650505050505050611563565b8360ff16606610156114435760009650505050505050611563565b60418460ff1610156114585760309150611473565b8360ff166046101561146d5760579150611472565b603791505b5b60006002826114829190612c1b565b141561149b5781846114949190612a00565b925061151c565b81846114a79190612a00565b8360106114b49190612991565b6114be919061272d565b60f81b8560026001846114d191906129cc565b6114db9190612764565b815181106114ec576114eb612d0a565b5b60200101907effffffffffffffffffffffffffffffffffffffffffffffffffffffffffffff1916908160001a9053505b808061152790612b9a565b91505061138d565b5060008460405160200161154391906123f8565b604051602081830303815290604052905060148101519650505b50505050505b919050565b611570611e1d565b61158085608001516101006118a5565b508385600001818152505082856020019073ffffffffffffffffffffffffffffffffffffffff16908173ffffffffffffffffffffffffffffffffffffffff16815250508185604001907bffffffffffffffffffffffffffffffffffffffffffffffffffffffff191690817bffffffffffffffffffffffffffffffffffffffffffffffffffffffff191681525050849050949350505050565b611625826003835161190f565b6116388183611a5490919063ffffffff16565b505050565b60003060045460405160200161165492919061240f565b604051602081830303815290604052805190602001209050600454856060018181525050856005600083815260200190815260200160002060006101000a81548173ffffffffffffffffffffffffffffffffffffffff021916908373ffffffffffffffffffffffffffffffffffffffff160217905550807fb5e6e01e79f91267dc17b4e6314d5d4d03593d2ceee0fbb452b750bd70ea5af960405160405180910390a2600082600080886000015189602001518a604001518b606001518a8d608001516000015160405160240161173298979695949392919061248f565b604051602081830303815290604052907bffffffffffffffffffffffffffffffffffffffffffffffffffffffff19166020820180517bffffffffffffffffffffffffffffffffffffffffffffffffffffffff83818316178352505050509050600260009054906101000a900473ffffffffffffffffffffffffffffffffffffffff1673ffffffffffffffffffffffffffffffffffffffff16634000aea08887846040518463ffffffff1660e01b81526004016117f093929190612514565b602060405180830381600087803b15801561180a57600080fd5b505af115801561181e573d6000803e3d6000fd5b505050506040513d601f19601f820116820180604052508101906118429190612062565b611881576040517f08c379a0000000000000000000000000000000000000000000000000000000008152600401611878906125c6565b60405180910390fd5b60016004600082825461189491906126d7565b925050819055505095945050505050565b6118ad611e8a565b60006020836118bc9190612c1b565b146118e8576020826118ce9190612c1b565b60206118da91906129cc565b826118e591906126d7565b91505b81836020018181525050604051808452600081528281016020016040525082905092915050565b6017811161193c576119368160058460ff16901b60ff161784611a7690919063ffffffff16565b50611a4f565b60ff811161197e57611961601860058460ff16901b1784611a7690919063ffffffff16565b5061197881600185611a969092919063ffffffff16565b50611a4e565b61ffff81116119c1576119a4601960058460ff16901b1784611a7690919063ffffffff16565b506119bb81600285611a969092919063ffffffff16565b50611a4d565b63ffffffff8111611a06576119e9601a60058460ff16901b1784611a7690919063ffffffff16565b50611a0081600485611a969092919063ffffffff16565b50611a4c565b67ffffffffffffffff8111611a4b57611a32601b60058460ff16901b1784611a7690919063ffffffff16565b50611a4981600885611a969092919063ffffffff16565b505b5b5b5b5b505050565b611a5c611e8a565b611a6e83846000015151848551611ab8565b905092915050565b611a7e611e8a565b611a8e8384600001515184611bc2565b905092915050565b611a9e611e8a565b611aaf848560000151518585611c19565b90509392505050565b611ac0611e8a565b8251821115611ace57600080fd5b84602001518285611adf91906126d7565b1115611b1457611b13856002611b0488602001518887611aff91906126d7565b611ca7565b611b0e9190612937565b611cc3565b5b600080865180518760208301019350808887011115611b335787860182525b60208701925050505b60208410611b7a5780518252602082611b5591906126d7565b9150602081611b6491906126d7565b9050602084611b7391906129cc565b9350611b3c565b60006001856020611b8b91906129cc565b610100611b989190612819565b611ba291906129cc565b905080198251168184511681811785525050879350505050949350505050565b611bca611e8a565b83602001518310611bf057611bef8460028660200151611bea9190612937565b611cc3565b5b8351805160208583010184815381861415611c0c576001820183525b5050508390509392505050565b611c21611e8a565b84602001518483611c3291906126d7565b1115611c5a57611c598560028685611c4a91906126d7565b611c549190612937565b611cc3565b5b6000600183610100611c6c9190612819565b611c7691906129cc565b90508551838682010185831982511617815281518588011115611c995784870182525b505085915050949350505050565b600081831115611cb957829050611cbd565b8190505b92915050565b600082600001519050611cd683836118a5565b50611ce18382611a54565b50505050565b604051806105000160405280602890602082028036833780820191505090505090565b828054611d1690612b37565b90600052602060002090601f016020900481019282611d385760008555611d7f565b82601f10611d5157805160ff1916838001178555611d7f565b82800160010185558215611d7f579182015b82811115611d7e578251825591602001919060010190611d63565b5b509050611d8c9190611ea4565b5090565b828054611d9c90612b37565b90600052602060002090601f016020900481019282611dbe5760008555611e0c565b82601f10611dcf5780548555611e0c565b82800160010185558215611e0c57600052602060002091601f016020900482015b82811115611e0b578254825591600101919060010190611df0565b5b509050611e199190611ea4565b5090565b6040518060a0016040528060008019168152602001600073ffffffffffffffffffffffffffffffffffffffff16815260200160007bffffffffffffffffffffffffffffffffffffffffffffffffffffffff1916815260200160008152602001611e84611e8a565b81525090565b604051806040016040528060608152602001600081525090565b5b80821115611ebd576000816000905550600101611ea5565b5090565b6000611ed4611ecf8461262b565b612606565b905082815260208101848484011115611ef057611eef612d77565b5b611efb848285612af5565b509392505050565b600081359050611f1281612e9e565b92915050565b600081519050611f2781612eb5565b92915050565b600081359050611f3c81612ecc565b92915050565b60008083601f840112611f5857611f57612d6d565b5b8235905067ffffffffffffffff811115611f7557611f74612d68565b5b602083019150836001820283011115611f9157611f90612d72565b5b9250929050565b600082601f830112611fad57611fac612d6d565b5b8135611fbd848260208601611ec1565b91505092915050565b600060208284031215611fdc57611fdb612d81565b5b6000611fea84828501611f03565b91505092915050565b60008060006060848603121561200c5761200b612d81565b5b600061201a86828701611f03565b935050602084013567ffffffffffffffff81111561203b5761203a612d7c565b5b61204786828701611f98565b925050604061205886828701611f03565b9150509250925092565b60006020828403121561207857612077612d81565b5b600061208684828501611f18565b91505092915050565b6000602082840312156120a5576120a4612d81565b5b60006120b384828501611f2d565b91505092915050565b600080604083850312156120d3576120d2612d81565b5b60006120e185828601611f2d565b92505060206120f285828601611f2d565b9150509250929050565b6000806020838503121561211357612112612d81565b5b600083013567ffffffffffffffff81111561213157612130612d7c565b5b61213d85828601611f42565b92509250509250929050565b60006020828403121561215f5761215e612d81565b5b600082013567ffffffffffffffff81111561217d5761217c612d7c565b5b61218984828501611f98565b91505092915050565b600061219e8383612210565b60208301905092915050565b6121b381612a34565b82525050565b6121c281612666565b6121cc8184612694565b92506121d78261265c565b8060005b838110156122085781516121ef8782612192565b96506121fa83612687565b9250506001810190506121db565b505050505050565b61221981612a46565b82525050565b61222881612a46565b82525050565b61223781612a52565b82525050565b61224e61224982612a52565b612bf5565b82525050565b61225d81612a5c565b82525050565b600061226e82612671565b612278818561269f565b9350612288818560208601612b04565b61229181612d86565b840191505092915050565b60006122a782612671565b6122b181856126b0565b93506122c1818560208601612b04565b80840191505092915050565b6122de6122d982612abf565b612be3565b82525050565b60006122ef8261267c565b6122f981856126bb565b9350612309818560208601612b04565b61231281612d86565b840191505092915050565b60006123288261267c565b61233281856126cc565b9350612342818560208601612b04565b80840191505092915050565b600061235b6023836126bb565b915061236682612db1565b604082019050919050565b600061237e6028836126bb565b915061238982612e00565b604082019050919050565b60006123a16035836126cc565b91506123ac82612e4f565b603582019050919050565b6123c081612aa8565b82525050565b6123d76123d282612aa8565b612c11565b82525050565b60006123e9828461223d565b60208201915081905092915050565b6000612404828461229c565b915081905092915050565b600061241b82856122cd565b60148201915061242b82846123c6565b6020820191508190509392505050565b6000612447828461231d565b915081905092915050565b600061245d82612394565b9150612469828461231d565b915081905092915050565b600060208201905061248960008301846121aa565b92915050565b6000610100820190506124a5600083018b6121aa565b6124b2602083018a6123b7565b6124bf604083018961222e565b6124cc60608301886121aa565b6124d96080830187612254565b6124e660a08301866123b7565b6124f360c08301856123b7565b81810360e08301526125058184612263565b90509998505050505050505050565b600060608201905061252960008301866121aa565b61253660208301856123b7565b81810360408301526125488184612263565b9050949350505050565b60006105008201905061256860008301846121b9565b92915050565b6000602082019050612583600083018461221f565b92915050565b600060208201905061259e600083018461222e565b92915050565b600060208201905081810360008301526125be81846122e4565b905092915050565b600060208201905081810360008301526125df8161234e565b9050919050565b600060208201905081810360008301526125ff81612371565b9050919050565b6000612610612621565b905061261c8282612b69565b919050565b6000604051905090565b600067ffffffffffffffff82111561264657612645612d39565b5b61264f82612d86565b9050602081019050919050565b6000819050919050565b600060289050919050565b600081519050919050565b600081519050919050565b6000602082019050919050565b600081905092915050565b600082825260208201905092915050565b600081905092915050565b600082825260208201905092915050565b600081905092915050565b60006126e282612aa8565b91506126ed83612aa8565b9250827fffffffffffffffffffffffffffffffffffffffffffffffffffffffffffffffff0382111561272257612721612c7d565b5b828201905092915050565b600061273882612ab2565b915061274383612ab2565b92508260ff0382111561275957612758612c7d565b5b828201905092915050565b600061276f82612aa8565b915061277a83612aa8565b92508261278a57612789612cac565b5b828204905092915050565b60006127a082612ab2565b91506127ab83612ab2565b9250826127bb576127ba612cac565b5b828204905092915050565b6000808291508390505b6001851115612810578086048111156127ec576127eb612c7d565b5b60018516156127fb5780820291505b808102905061280985612da4565b94506127d0565b94509492505050565b600061282482612aa8565b915061282f83612aa8565b925061285c7fffffffffffffffffffffffffffffffffffffffffffffffffffffffffffffffff8484612864565b905092915050565b6000826128745760019050612930565b816128825760009050612930565b816001811461289857600281146128a2576128d1565b6001915050612930565b60ff8411156128b4576128b3612c7d565b5b8360020a9150848211156128cb576128ca612c7d565b5b50612930565b5060208310610133831016604e8410600b84101617156129065782820a90508381111561290157612900612c7d565b5b612930565b61291384848460016127c6565b9250905081840481111561292a57612929612c7d565b5b81810290505b9392505050565b600061294282612aa8565b915061294d83612aa8565b9250817fffffffffffffffffffffffffffffffffffffffffffffffffffffffffffffffff048311821515161561298657612985612c7d565b5b828202905092915050565b600061299c82612ab2565b91506129a783612ab2565b92508160ff04831182151516156129c1576129c0612c7d565b5b828202905092915050565b60006129d782612aa8565b91506129e283612aa8565b9250828210156129f5576129f4612c7d565b5b828203905092915050565b6000612a0b82612ab2565b9150612a1683612ab2565b925082821015612a2957612a28612c7d565b5b828203905092915050565b6000612a3f82612a88565b9050919050565b60008115159050919050565b6000819050919050565b60007fffffffff0000000000000000000000000000000000000000000000000000000082169050919050565b600073ffffffffffffffffffffffffffffffffffffffff82169050919050565b6000819050919050565b600060ff82169050919050565b6000612aca82612ad1565b9050919050565b6000612adc82612ae3565b9050919050565b6000612aee82612a88565b9050919050565b82818337600083830152505050565b60005b83811015612b22578082015181840152602081019050612b07565b83811115612b31576000848401525b50505050565b60006002820490506001821680612b4f57607f821691505b60208210811415612b6357612b62612cdb565b5b50919050565b612b7282612d86565b810181811067ffffffffffffffff82111715612b9157612b90612d39565b5b80604052505050565b6000612ba582612aa8565b91507fffffffffffffffffffffffffffffffffffffffffffffffffffffffffffffffff821415612bd857612bd7612c7d565b5b600182019050919050565b6000612bee82612bff565b9050919050565b6000819050919050565b6000612c0a82612d97565b9050919050565b6000819050919050565b6000612c2682612aa8565b9150612c3183612aa8565b925082612c4157612c40612cac565b5b828206905092915050565b6000612c5782612ab2565b9150612c6283612ab2565b925082612c7257612c71612cac565b5b828206905092915050565b7f4e487b7100000000000000000000000000000000000000000000000000000000600052601160045260246000fd5b7f4e487b7100000000000000000000000000000000000000000000000000000000600052601260045260246000fd5b7f4e487b7100000000000000000000000000000000000000000000000000000000600052602260045260246000fd5b7f4e487b7100000000000000000000000000000000000000000000000000000000600052603260045260246000fd5b7f4e487b7100000000000000000000000000000000000000000000000000000000600052604160045260246000fd5b600080fd5b600080fd5b600080fd5b600080fd5b600080fd5b600080fd5b6000601f19601f8301169050919050565b60008160601b9050919050565b60008160011c9050919050565b7f756e61626c6520746f207472616e73666572416e6443616c6c20746f206f726160008201527f636c650000000000000000000000000000000000000000000000000000000000602082015250565b7f536f75726365206d75737420626520746865206f7261636c65206f662074686560008201527f2072657175657374000000000000000000000000000000000000000000000000602082015250565b7f68747470733a2f2f6d792d6a736f6e2d7365727665722e74797069636f64652e60008201527f636f6d2f6375746562657272792f64656d6f2f30780000000000000000000000602082015250565b612ea781612a34565b8114612eb257600080fd5b50565b612ebe81612a46565b8114612ec957600080fd5b50565b612ed581612a52565b8114612ee057600080fd5b5056fea264697066735822122080abb05665caaf48a777877db45b96ca118edf742b022ad08b0e5662d4099a3c64736f6c63430008070033",
  "immutableReferences": {},
  "source": "// SPDX-License-Identifier: MIT\npragma solidity ^0.8.7;\n\n//yarn add @chainlink/contracts\nimport \"@chainlink/contracts/src/v0.8/dev/ChainlinkClient.sol\";\n\n/**\n * Request testnet LINK and ETH here: https://faucets.chain.link/\n * Find information on LINK Token Contracts and get the latest ETH and LINK faucets here: https://docs.chain.link/docs/link-token-contracts/\n */\n\n/**\n * THIS IS AN EXAMPLE CONTRACT WHICH USES HARDCODED VALUES FOR CLARITY.\n * PLEASE DO NOT USE THIS CODE IN PRODUCTION.\n */\ncontract KYCValidatorChainlink is ChainlinkClient {\n    using Chainlink for Chainlink.Request;\n  \n    bytes32 public result;\n    string public resultStr;\n\n    // This keeps the record on whether the address is KYCed by CB. \n    // It can be expanded to the latest date the user is verified. \n    mapping(address => string) public validatorMap;\n    \n    mapping(bytes32=>address) public validIds;\n\n    address private owner;\n    uint256 private fee;\n    \n    event logGetOwner(address owner);\n    \n    event logRequestId(bytes32 queryId);\n\n    event logRetrieveKYCStart(address addr);\n\n    event logAPIResult(string result);\n\n    event logQuery(string query);\n\n\n    /**\n     * Network: Kovan\n     * Oracle: 0xc57B33452b4F7BB189bB5AfaE9cc4aBa1f7a4FD8 (Chainlink Devrel   \n     * Node)\n     * Job ID: d5270d1c311941d0b08bead21fea7747\n     * Fee: 0.1 LINK\n     */\n    constructor() payable{\n        owner = msg.sender;\n        setPublicChainlinkToken();\n        fee = 10 ** 18; // (Varies by network and job)\n    }\n    \n    //public function to get the address of the owner.\n    function getOwner () public returns (address) {\n        emit logGetOwner(owner);\n        return owner;\n    }\n\n    //public function to update the KYC status of an addtress\n    //Within the funciton, it will check whehter the request is coming from CB.\n    function retrieveKYC (address oracle, string memory jobId, address targetAddr) public payable{\n        //require(owner == msg.sender); \n        bytes32 requestId = retrieveKYCData( oracle, jobId, targetAddr);\n        validIds[requestId] = targetAddr;\n        emit logRetrieveKYCStart(targetAddr);\n        emit logRequestId(requestId);\n        //todo: charge gas from target\n    }\n\n    //public function to validate the target address \n    //Within the funciton, it will check whehter the request is coming from CB.\n    function hasKYC (address targetAddr) public view returns (string memory) {\n        //require(owner == msg.sender); \n        //todo: charge gas from target\n\n        //emit logValidate(targetAddr, validatorMap[targetAddr]);\n        return validatorMap[targetAddr];\n    }\n\n    /**\n     * Create a Chainlink request to retrieve API response, find the target\n     * data, then multiply by 1000000000000000000 (to remove decimal places from data).\n     */\n    function retrieveKYCData(address oracle, string memory jobId, address targetAddr) public returns (bytes32 requestId) \n    {\n        result = 0;\n        Chainlink.Request memory request = buildChainlinkRequest(stringToBytes32(jobId), address(this), this.fulfillBytes.selector);\n        \n        // Set the URL to perform the GET request on\n        string memory urlStr = string(abi.encodePacked(\"https://my-json-server.typicode.com/cuteberry/demo/0x\", _toChecksumString(targetAddr)));\n        emit logQuery(urlStr);\n        request.add(\"get\", urlStr);\n        \n        // Set the path to find the desired data in the API response, where the response format is:\n        // {\"RAW\":\n        //   {\"ETH\":\n        //    {\"USD\":\n        //     {\n        //      \"VOLUME24HOUR\": xxx.xxx,\n        //     }\n        //    }\n        //   }\n        //  }\n        request.add(\"path\", \"hasKYC\");\n        \n        // Multiply the result by 1000000000000000000 to remove decimals\n        // int timesAmount = 10**18;\n        // request.addInt(\"times\", timesAmount);\n        \n        // Sends the request\n        return sendChainlinkRequestTo(oracle, request, fee);\n    }\n    \n    /**\n     * Receive the response in the form of uint256\n     */ \n    // function fulfill(bytes32 _requestId, uint256 _volume) public recordChainlinkFulfillment(_requestId)\n    // {\n    //     volume = _volume;\n    //     emit logAPIResult(temp);\n    //     validatorMap[validIds[_myid]] = _result;\n    //     emit logRegisterAddressEnd(validIds[_myid], _result);\n    // }\n    function fulfillBytes(\n        bytes32 requestId,\n        bytes32 data\n    )\n        public\n        recordChainlinkFulfillment(requestId)\n    {\n        result = data;\n        resultStr = string(abi.encodePacked(data));\n        validatorMap[validIds[requestId]] = resultStr;\n    }\n    function stringToBytes32(string memory source) public pure returns (bytes32 myResult) {\n        bytes memory tempEmptyStringTest = bytes(source);\n        if (tempEmptyStringTest.length == 0) {\n            return 0x0;\n        }\n\n        assembly {\n            myResult := mload(add(source, 32))\n        }\n    }\n\n    // function withdrawLink() external {} - Implement a withdraw function to avoid locking your LINK in the contract\n    \n    // This contract keeps all Ether sent to it with no way\n    // to get it back.\n    fallback() external payable {}\n\n    receive() external payable {\n        // custom function code\n    }\n\n    function withdrawLink() external {}\n\n    function toAsciiString(address x) internal pure returns (string memory) {\n        bytes memory s = new bytes(40);\n        for (uint i = 0; i < 20; i++) {\n            bytes1 b = bytes1(uint8(uint(uint160(x)) / (2**(8*(19 - i)))));\n            bytes1 hi = bytes1(uint8(b) / 16);\n            bytes1 lo = bytes1(uint8(b) - 16 * uint8(hi));\n            s[2*i] = char(hi);\n            s[2*i+1] = char(lo);            \n        }\n        return string(s);\n    }\n    function char(bytes1 b) internal pure returns (bytes1 c) {\n        if (uint8(b) < 10) return bytes1(uint8(b) + 0x30);\n        else return bytes1(uint8(b) + 0x57);\n    }\n\n    /**\n    * @dev Get a checksummed string hex representation of an account address.\n    * @param account address The account to get the checksum for.\n    * @return accountChecksum The checksummed account string in ASCII format. Note that leading\n    * \"0x\" is not included.\n    */\n    function getChecksum(\n        address account\n    ) public pure returns (string memory accountChecksum) {\n        // call internal function for converting an account to a checksummed string.\n        return _toChecksumString(account);\n    }\n\n    /**\n    * @dev Get a fixed-size array of whether or not each character in an account\n    * will be capitalized in the checksum.\n    * @param account address The account to get the checksum capitalization\n    * information for.\n    * @return characterCapitalized A fixed-size array of booleans that signify if each character or\n    * \"nibble\" of the hex encoding of the address will be capitalized by the\n    * checksum.\n    */\n    function getChecksumCapitalizedCharacters(\n        address account\n    ) external pure returns (bool[40] memory characterCapitalized) {\n        // call internal function for computing characters capitalized in checksum.\n        return _toChecksumCapsFlags(account);\n    }\n\n    /**\n    * @dev Determine whether a string hex representation of an account address\n    * matches the ERC-55 checksum of that address.\n    * @param accountChecksum string The checksummed account string in ASCII\n    * format. Note that a leading \"0x\" MUST NOT be included.\n    * @return ok A boolean signifying whether or not the checksum is valid.\n    */\n    function isChecksumValid(\n        string calldata accountChecksum\n    ) external pure returns (bool ok) {\n        // call internal function for validating checksum strings.\n        return _isChecksumValid(accountChecksum);\n    }\n\n    function _toChecksumString(\n        address account\n    ) internal pure returns (string memory asciiString) {\n        // convert the account argument from address to bytes.\n        bytes20 data = bytes20(account);\n\n        // create an in-memory fixed-size bytes array.\n        bytes memory asciiBytes = new bytes(40);\n\n        // declare variable types.\n        uint8 b;\n        uint8 leftNibble;\n        uint8 rightNibble;\n        bool leftCaps;\n        bool rightCaps;\n        uint8 asciiOffset;\n\n        // get the capitalized characters in the actual checksum.\n        bool[40] memory caps = _toChecksumCapsFlags(account);\n\n        // iterate over bytes, processing left and right nibble in each iteration.\n        for (uint256 i = 0; i < data.length; i++) {\n        // locate the byte and extract each nibble.\n        b = uint8(uint160(data) / (2**(8*(19 - i))));\n        leftNibble = b / 16;\n        rightNibble = b - 16 * leftNibble;\n\n        // locate and extract each capitalization status.\n        leftCaps = caps[2*i];\n        rightCaps = caps[2*i + 1];\n\n        // get the offset from nibble value to ascii character for left nibble.\n        asciiOffset = _getAsciiOffset(leftNibble, leftCaps);\n\n        // add the converted character to the byte array.\n        asciiBytes[2 * i] = bytes1(leftNibble + asciiOffset);\n\n        // get the offset from nibble value to ascii character for right nibble.\n        asciiOffset = _getAsciiOffset(rightNibble, rightCaps);\n\n        // add the converted character to the byte array.\n        asciiBytes[2 * i + 1] = bytes1(rightNibble + asciiOffset);\n        }\n\n        return string(asciiBytes);\n    }\n\n    function _toChecksumCapsFlags(address account) internal pure returns (\n        bool[40] memory characterCapitalized\n    ) {\n        // convert the address to bytes.\n        bytes20 a = bytes20(account);\n\n        // hash the address (used to calculate checksum).\n        bytes32 b = keccak256(abi.encodePacked(_toAsciiString(a)));\n\n        // declare variable types.\n        uint8 leftNibbleAddress;\n        uint8 rightNibbleAddress;\n        uint8 leftNibbleHash;\n        uint8 rightNibbleHash;\n\n        // iterate over bytes, processing left and right nibble in each iteration.\n        for (uint256 i; i < a.length; i++) {\n        // locate the byte and extract each nibble for the address and the hash.\n        rightNibbleAddress = uint8(a[i]) % 16;\n        leftNibbleAddress = (uint8(a[i]) - rightNibbleAddress) / 16;\n        rightNibbleHash = uint8(b[i]) % 16;\n        leftNibbleHash = (uint8(b[i]) - rightNibbleHash) / 16;\n\n        characterCapitalized[2 * i] = (\n            leftNibbleAddress > 9 &&\n            leftNibbleHash > 7\n        );\n        characterCapitalized[2 * i + 1] = (\n            rightNibbleAddress > 9 &&\n            rightNibbleHash > 7\n        );\n        }\n    }\n\n    function _isChecksumValid(\n        string memory provided\n    ) internal pure returns (bool ok) {\n        // convert the provided string into account type.\n        address account = _toAddress(provided);\n\n        // return false in the event the account conversion returned null address.\n        if (\n        account == address(0)\n        ) {\n        // ensure that provided address is not also the null address first.\n        bytes memory b = bytes(provided);\n        for (uint256 i; i < b.length; i++) {\n            if (b[i] != hex\"30\") {\n            return false;\n            }\n        }\n        }\n\n        // get the capitalized characters in the actual checksum.\n        string memory actual = _toChecksumString(account);\n\n        // compare provided string to actual checksum string to test for validity.\n        return (\n        keccak256(\n            abi.encodePacked(\n            actual\n            )\n        ) == keccak256(\n            abi.encodePacked(\n            provided\n            )\n        )\n        );\n    }\n\n    function _getAsciiOffset(\n        uint8 nibble, bool caps\n    ) internal pure returns (uint8 offset) {\n        // to convert to ascii characters, add 48 to 0-9, 55 to A-F, & 87 to a-f.\n        if (nibble < 10) {\n        offset = 48;\n        } else if (caps) {\n        offset = 55;\n        } else {\n        offset = 87;\n        }\n    }\n\n    function _toAddress(\n        string memory account\n    ) internal pure returns (address accountAddress) {\n        // convert the account argument from address to bytes.\n        bytes memory accountBytes = bytes(account);\n\n        // create a new fixed-size byte array for the ascii bytes of the address.\n        bytes memory accountAddressBytes = new bytes(20);\n\n        // declare variable types.\n        uint8 b;\n        uint8 nibble;\n        uint8 asciiOffset;\n\n        // only proceed if the provided string has a length of 40.\n        if (accountBytes.length == 40) {\n        for (uint256 i; i < 40; i++) {\n            // get the byte in question.\n            b = uint8(accountBytes[i]);\n\n            // ensure that the byte is a valid ascii character (0-9, A-F, a-f)\n            if (b < 48) return address(0);\n            if (57 < b && b < 65) return address(0);\n            if (70 < b && b < 97) return address(0);\n            if (102 < b) return address(0); //bytes(hex\"\");\n\n            // find the offset from ascii encoding to the nibble representation.\n            if (b < 65) { // 0-9\n            asciiOffset = 48;\n            } else if (70 < b) { // a-f\n            asciiOffset = 87;\n            } else { // A-F\n            asciiOffset = 55;\n            }\n\n            // store left nibble on even iterations, then store byte on odd ones.\n            if (i % 2 == 0) {\n            nibble = b - asciiOffset;\n            } else {\n            accountAddressBytes[(i - 1) / 2] = bytes1(\n                16 * nibble + (b - asciiOffset));\n            }\n        }\n\n        // pack up the fixed-size byte array and cast it to accountAddress.\n        bytes memory packed = abi.encodePacked(accountAddressBytes);\n        assembly {\n            accountAddress := mload(add(packed, 20))\n        }\n        }\n    }\n\n    // based on https://ethereum.stackexchange.com/a/56499/48410\n    function _toAsciiString(\n        bytes20 data\n    ) internal pure returns (string memory asciiString) {\n        // create an in-memory fixed-size bytes array.\n        bytes memory asciiBytes = new bytes(40);\n\n        // declare variable types.\n        uint8 b;\n        uint8 leftNibble;\n        uint8 rightNibble;\n\n        // iterate over bytes, processing left and right nibble in each iteration.\n        for (uint256 i = 0; i < data.length; i++) {\n        // locate the byte and extract each nibble.\n        b = uint8(uint160(data) / (2 ** (8 * (19 - i))));\n        leftNibble = b / 16;\n        rightNibble = b - 16 * leftNibble;\n\n        // to convert to ascii characters, add 48 to 0-9 and 87 to a-f.\n        asciiBytes[2 * i] = bytes1(leftNibble + (leftNibble < 10 ? 48 : 87));\n        asciiBytes[2 * i + 1] = bytes1(rightNibble + (rightNibble < 10 ? 48 : 87));\n        }\n\n        return string(asciiBytes);\n    }\n}",
  "sourcePath": "/Users/mei/cryptostudy/KYCValidator/contracts/KYCValidatorChainLink.sol",
  "compiler": {
    "name": "solc",
    "version": "0.8.7+commit.e28d00a7.Emscripten.clang"
  },
  "schemaVersion": "3.4.3",
  "updatedAt": "2021-12-12T20:04:21.189Z",
  "devdoc": {
    "kind": "dev",
    "methods": {
      "getChecksum(address)": {
        "details": "Get a checksummed string hex representation of an account address.",
        "params": {
          "account": "address The account to get the checksum for."
        },
        "returns": {
          "accountChecksum": "The checksummed account string in ASCII format. Note that leading \"0x\" is not included."
        }
      },
      "getChecksumCapitalizedCharacters(address)": {
        "details": "Get a fixed-size array of whether or not each character in an account will be capitalized in the checksum.",
        "params": {
          "account": "address The account to get the checksum capitalization information for."
        },
        "returns": {
          "characterCapitalized": "A fixed-size array of booleans that signify if each character or \"nibble\" of the hex encoding of the address will be capitalized by the checksum."
        }
      },
      "isChecksumValid(string)": {
        "details": "Determine whether a string hex representation of an account address matches the ERC-55 checksum of that address.",
        "params": {
          "accountChecksum": "string The checksummed account string in ASCII format. Note that a leading \"0x\" MUST NOT be included."
        },
        "returns": {
          "ok": "A boolean signifying whether or not the checksum is valid."
        }
      }
    },
    "version": 1
  },
  "userdoc": {
    "kind": "user",
    "methods": {
      "constructor": {
        "notice": "Network: Kovan Oracle: 0xc57B33452b4F7BB189bB5AfaE9cc4aBa1f7a4FD8 (Chainlink Devrel    Node) Job ID: d5270d1c311941d0b08bead21fea7747 Fee: 0.1 LINK"
      },
      "fulfillBytes(bytes32,bytes32)": {
        "notice": "Receive the response in the form of uint256"
      },
      "retrieveKYCData(address,string,address)": {
        "notice": "Create a Chainlink request to retrieve API response, find the target data, then multiply by 1000000000000000000 (to remove decimal places from data)."
      }
    },
    "notice": "THIS IS AN EXAMPLE CONTRACT WHICH USES HARDCODED VALUES FOR CLARITY. PLEASE DO NOT USE THIS CODE IN PRODUCTION.",
    "version": 1
  }
}