{
  "contractName": "KYCValidatorWithAPICall",
  "abi": [
    {
      "inputs": [],
      "stateMutability": "payable",
      "type": "constructor",
      "payable": true
    },
    {
      "anonymous": false,
      "inputs": [
        {
          "indexed": false,
          "internalType": "string",
          "name": "result",
          "type": "string"
        }
      ],
      "name": "logAPIResult",
      "type": "event"
    },
    {
      "anonymous": false,
      "inputs": [
        {
          "indexed": false,
          "internalType": "address",
          "name": "addr",
          "type": "address"
        }
      ],
      "name": "logGetAddress",
      "type": "event"
    },
    {
      "anonymous": false,
      "inputs": [
        {
          "indexed": false,
          "internalType": "address",
          "name": "owner",
          "type": "address"
        }
      ],
      "name": "logGetOwner",
      "type": "event"
    },
    {
      "anonymous": false,
      "inputs": [
        {
          "indexed": false,
          "internalType": "string",
          "name": "result",
          "type": "string"
        }
      ],
      "name": "logNewProvableQuery",
      "type": "event"
    },
    {
      "anonymous": false,
      "inputs": [
        {
          "indexed": false,
          "internalType": "uint256",
          "name": "price",
          "type": "uint256"
        }
      ],
      "name": "logPrice",
      "type": "event"
    },
    {
      "anonymous": false,
      "inputs": [
        {
          "indexed": false,
          "internalType": "string",
          "name": "query",
          "type": "string"
        }
      ],
      "name": "logQuery",
      "type": "event"
    },
    {
      "anonymous": false,
      "inputs": [
        {
          "indexed": false,
          "internalType": "bytes32",
          "name": "queryId",
          "type": "bytes32"
        }
      ],
      "name": "logQueryId",
      "type": "event"
    },
    {
      "anonymous": false,
      "inputs": [
        {
          "indexed": false,
          "internalType": "address",
          "name": "target",
          "type": "address"
        },
        {
          "indexed": false,
          "internalType": "string",
          "name": "validated",
          "type": "string"
        }
      ],
      "name": "logRegisterAddressEnd",
      "type": "event"
    },
    {
      "anonymous": false,
      "inputs": [
        {
          "indexed": false,
          "internalType": "address",
          "name": "target",
          "type": "address"
        }
      ],
      "name": "logRegisterAddressStart",
      "type": "event"
    },
    {
      "anonymous": false,
      "inputs": [
        {
          "indexed": false,
          "internalType": "string",
          "name": "result",
          "type": "string"
        }
      ],
      "name": "logResult",
      "type": "event"
    },
    {
      "anonymous": false,
      "inputs": [
        {
          "indexed": false,
          "internalType": "address",
          "name": "addr",
          "type": "address"
        },
        {
          "indexed": false,
          "internalType": "string",
          "name": "validated",
          "type": "string"
        }
      ],
      "name": "logValidate",
      "type": "event"
    },
    {
      "stateMutability": "payable",
      "type": "fallback",
      "payable": true
    },
    {
      "inputs": [],
      "name": "gasLimit",
      "outputs": [
        {
          "internalType": "uint256",
          "name": "",
          "type": "uint256"
        }
      ],
      "stateMutability": "view",
      "type": "function",
      "constant": true
    },
    {
      "inputs": [],
      "name": "priceOfUrl",
      "outputs": [
        {
          "internalType": "uint256",
          "name": "",
          "type": "uint256"
        }
      ],
      "stateMutability": "view",
      "type": "function",
      "constant": true
    },
    {
      "inputs": [],
      "name": "temp",
      "outputs": [
        {
          "internalType": "string",
          "name": "",
          "type": "string"
        }
      ],
      "stateMutability": "view",
      "type": "function",
      "constant": true
    },
    {
      "stateMutability": "payable",
      "type": "receive",
      "payable": true
    },
    {
      "inputs": [],
      "name": "getOwner",
      "outputs": [
        {
          "internalType": "address",
          "name": "",
          "type": "address"
        }
      ],
      "stateMutability": "nonpayable",
      "type": "function"
    },
    {
      "inputs": [
        {
          "internalType": "address",
          "name": "targetAddr",
          "type": "address"
        }
      ],
      "name": "retrieveKYC",
      "outputs": [],
      "stateMutability": "payable",
      "type": "function",
      "payable": true
    },
    {
      "inputs": [
        {
          "internalType": "address",
          "name": "targetAddr",
          "type": "address"
        }
      ],
      "name": "hasKYC",
      "outputs": [
        {
          "internalType": "string",
          "name": "",
          "type": "string"
        }
      ],
      "stateMutability": "view",
      "type": "function",
      "constant": true
    },
    {
      "inputs": [],
      "name": "getTemp",
      "outputs": [
        {
          "internalType": "string",
          "name": "",
          "type": "string"
        }
      ],
      "stateMutability": "view",
      "type": "function",
      "constant": true
    },
    {
      "inputs": [
        {
          "internalType": "address",
          "name": "targetAddr",
          "type": "address"
        }
      ],
      "name": "retrieveKYCData",
      "outputs": [],
      "stateMutability": "payable",
      "type": "function",
      "payable": true
    },
    {
      "inputs": [
        {
          "internalType": "bytes32",
          "name": "_myid",
          "type": "bytes32"
        },
        {
          "internalType": "string",
          "name": "_result",
          "type": "string"
        }
      ],
      "name": "__callback",
      "outputs": [],
      "stateMutability": "nonpayable",
      "type": "function"
    },
    {
      "inputs": [
        {
          "internalType": "bytes32",
          "name": "_myid",
          "type": "bytes32"
        },
        {
          "internalType": "string",
          "name": "_result",
          "type": "string"
        },
        {
          "internalType": "bytes",
          "name": "_proof",
          "type": "bytes"
        }
      ],
      "name": "__callback",
      "outputs": [],
      "stateMutability": "nonpayable",
      "type": "function"
    },
    {
      "inputs": [
        {
          "internalType": "address",
          "name": "account",
          "type": "address"
        }
      ],
      "name": "getChecksum",
      "outputs": [
        {
          "internalType": "string",
          "name": "accountChecksum",
          "type": "string"
        }
      ],
      "stateMutability": "pure",
      "type": "function",
      "constant": true
    },
    {
      "inputs": [
        {
          "internalType": "address",
          "name": "account",
          "type": "address"
        }
      ],
      "name": "getChecksumCapitalizedCharacters",
      "outputs": [
        {
          "internalType": "bool[40]",
          "name": "characterCapitalized",
          "type": "bool[40]"
        }
      ],
      "stateMutability": "pure",
      "type": "function",
      "constant": true
    },
    {
      "inputs": [
        {
          "internalType": "string",
          "name": "accountChecksum",
          "type": "string"
        }
      ],
      "name": "isChecksumValid",
      "outputs": [
        {
          "internalType": "bool",
          "name": "ok",
          "type": "bool"
        }
      ],
      "stateMutability": "pure",
      "type": "function",
      "constant": true
    }
  ],
  "bytecode": "0x608060405233600760006101000a81548173ffffffffffffffffffffffffffffffffffffffff021916908373ffffffffffffffffffffffffffffffffffffffff1602179055506200005a63ee6b2cd2620000b560201b60201c565b73c03a2615d5efaf5f49f60b7bb6583eaec212fdf1600160006101000a81548173ffffffffffffffffffffffffffffffffffffffff021916908373ffffffffffffffffffffffffffffffffffffffff16021790555062000a87565b600073ffffffffffffffffffffffffffffffffffffffff16600160009054906101000a900473ffffffffffffffffffffffffffffffffffffffff1673ffffffffffffffffffffffffffffffffffffffff161480620001455750600062000143600160009054906101000a900473ffffffffffffffffffffffffffffffffffffffff16620003d260201b60201c565b145b156200015f576200015d6000620003dd60201b60201c565b505b600160009054906101000a900473ffffffffffffffffffffffffffffffffffffffff1673ffffffffffffffffffffffffffffffffffffffff166338cc48316040518163ffffffff1660e01b8152600401602060405180830381600087803b158015620001ca57600080fd5b505af1158015620001df573d6000803e3d6000fd5b505050506040513d6020811015620001f657600080fd5b810190808051906020019092919050505073ffffffffffffffffffffffffffffffffffffffff1660008054906101000a900473ffffffffffffffffffffffffffffffffffffffff1673ffffffffffffffffffffffffffffffffffffffff16146200034257600160009054906101000a900473ffffffffffffffffffffffffffffffffffffffff1673ffffffffffffffffffffffffffffffffffffffff166338cc48316040518163ffffffff1660e01b8152600401602060405180830381600087803b158015620002c557600080fd5b505af1158015620002da573d6000803e3d6000fd5b505050506040513d6020811015620002f157600080fd5b81019080805190602001909291905050506000806101000a81548173ffffffffffffffffffffffffffffffffffffffff021916908373ffffffffffffffffffffffffffffffffffffffff1602179055505b60008054906101000a900473ffffffffffffffffffffffffffffffffffffffff1673ffffffffffffffffffffffffffffffffffffffff1663ca6ad1e4826040518263ffffffff1660e01b815260040180828152602001915050600060405180830381600087803b158015620003b657600080fd5b505af1158015620003cb573d6000803e3d6000fd5b5050505050565b6000813b9050919050565b6000620003ef620003f660201b60201c565b9050919050565b6000806200041e731d3b2638a7cc9f2cb3d298a3da7a90b67e5506ed620003d260201b60201c565b1115620004ca57731d3b2638a7cc9f2cb3d298a3da7a90b67e5506ed600160006101000a81548173ffffffffffffffffffffffffffffffffffffffff021916908373ffffffffffffffffffffffffffffffffffffffff160217905550620004c06040518060400160405280600b81526020017f6574685f6d61696e6e6574000000000000000000000000000000000000000000815250620009c560201b60201c565b60019050620009c2565b6000620004f173c03a2615d5efaf5f49f60b7bb6583eaec212fdf1620003d260201b60201c565b11156200059d5773c03a2615d5efaf5f49f60b7bb6583eaec212fdf1600160006101000a81548173ffffffffffffffffffffffffffffffffffffffff021916908373ffffffffffffffffffffffffffffffffffffffff160217905550620005936040518060400160405280600c81526020017f6574685f726f707374656e330000000000000000000000000000000000000000815250620009c560201b60201c565b60019050620009c2565b6000620005c473b7a07bcf2ba2f2703b24c0691b5278999c59ac7e620003d260201b60201c565b1115620006705773b7a07bcf2ba2f2703b24c0691b5278999c59ac7e600160006101000a81548173ffffffffffffffffffffffffffffffffffffffff021916908373ffffffffffffffffffffffffffffffffffffffff160217905550620006666040518060400160405280600981526020017f6574685f6b6f76616e0000000000000000000000000000000000000000000000815250620009c560201b60201c565b60019050620009c2565b60006200069773146500cfd35b22e4a392fe0adc06de1a1368ed48620003d260201b60201c565b1115620007435773146500cfd35b22e4a392fe0adc06de1a1368ed48600160006101000a81548173ffffffffffffffffffffffffffffffffffffffff021916908373ffffffffffffffffffffffffffffffffffffffff160217905550620007396040518060400160405280600b81526020017f6574685f72696e6b656279000000000000000000000000000000000000000000815250620009c560201b60201c565b60019050620009c2565b60006200076a73a2998efd205fb9d4b4963afb70778d6354ad3a41620003d260201b60201c565b1115620008165773a2998efd205fb9d4b4963afb70778d6354ad3a41600160006101000a81548173ffffffffffffffffffffffffffffffffffffffff021916908373ffffffffffffffffffffffffffffffffffffffff1602179055506200080c6040518060400160405280600a81526020017f6574685f676f65726c6900000000000000000000000000000000000000000000815250620009c560201b60201c565b60019050620009c2565b60006200083d736f485c8bf6fc43ea212e93bbf8ce046c7f1cb475620003d260201b60201c565b1115620008a357736f485c8bf6fc43ea212e93bbf8ce046c7f1cb475600160006101000a81548173ffffffffffffffffffffffffffffffffffffffff021916908373ffffffffffffffffffffffffffffffffffffffff16021790555060019050620009c2565b6000620008ca7320e12a1f859b3feae5fb2a0a32c18f5a65555bbf620003d260201b60201c565b111562000930577320e12a1f859b3feae5fb2a0a32c18f5a65555bbf600160006101000a81548173ffffffffffffffffffffffffffffffffffffffff021916908373ffffffffffffffffffffffffffffffffffffffff16021790555060019050620009c2565b6000620009577351efaf4c8b3c9afbd5ab9f4bbc82784ab6ef8faa620003d260201b60201c565b1115620009bd577351efaf4c8b3c9afbd5ab9f4bbc82784ab6ef8faa600160006101000a81548173ffffffffffffffffffffffffffffffffffffffff021916908373ffffffffffffffffffffffffffffffffffffffff16021790555060019050620009c2565b600090505b90565b8060029080519060200190620009dd929190620009e1565b5050565b828054600181600116156101000203166002900490600052602060002090601f016020900481019282601f1062000a2457805160ff191683800117855562000a55565b8280016001018555821562000a55579182015b8281111562000a5457825182559160200191906001019062000a37565b5b50905062000a64919062000a68565b5090565b5b8082111562000a8357600081600090555060010162000a69565b5090565b61297f8062000a976000396000f3fe6080604052600436106100c65760003560e01c80635249e8621161007f578063893d20e811610059578063893d20e81461066e57806395252560146106af578063bfc9f1ce1461073f578063f68016b7146107db576100cd565b80635249e8621461044a578063673402e5146105145780637cd6f8ff146105a4576100cd565b80630ee5fa2d146100cf57806327dc297e1461011357806334335472146101e557806338bbfa501461027257806343d3b1be146103db57806350ad658114610406576100cd565b366100cd57005b005b610111600480360360208110156100e557600080fd5b81019080803573ffffffffffffffffffffffffffffffffffffffff169060200190929190505050610806565b005b34801561011f57600080fd5b506101e36004803603604081101561013657600080fd5b81019080803590602001909291908035906020019064010000000081111561015d57600080fd5b82018360208201111561016f57600080fd5b8035906020019184600183028401116401000000008311171561019157600080fd5b91908080601f016020809104026020016040519081016040528093929190818152602001838380828437600081840152601f19601f820116905080830192505050505050509192919290505050610aa3565b005b3480156101f157600080fd5b506102346004803603602081101561020857600080fd5b81019080803573ffffffffffffffffffffffffffffffffffffffff169060200190929190505050610cec565b6040518082602860200280838360005b8381101561025f578082015181840152602081019050610244565b5050505090500191505060405180910390f35b34801561027e57600080fd5b506103d96004803603606081101561029557600080fd5b8101908080359060200190929190803590602001906401000000008111156102bc57600080fd5b8201836020820111156102ce57600080fd5b803590602001918460018302840111640100000000831117156102f057600080fd5b91908080601f016020809104026020016040519081016040528093929190818152602001838380828437600081840152601f19601f8201169050808301925050505050505091929192908035906020019064010000000081111561035357600080fd5b82018360208201111561036557600080fd5b8035906020019184600183028401116401000000008311171561038757600080fd5b91908080601f016020809104026020016040519081016040528093929190818152602001838380828437600081840152601f19601f820116905080830192505050505050509192919290505050610d04565b005b3480156103e757600080fd5b506103f0610d27565b6040518082815260200191505060405180910390f35b6104486004803603602081101561041c57600080fd5b81019080803573ffffffffffffffffffffffffffffffffffffffff169060200190929190505050610d2d565b005b34801561045657600080fd5b506104996004803603602081101561046d57600080fd5b81019080803573ffffffffffffffffffffffffffffffffffffffff169060200190929190505050610d86565b6040518080602001828103825283818151815260200191508051906020019080838360005b838110156104d95780820151818401526020810190506104be565b50505050905090810190601f1680156105065780820380516001836020036101000a031916815260200191505b509250505060405180910390f35b34801561052057600080fd5b50610529610e67565b6040518080602001828103825283818151815260200191508051906020019080838360005b8381101561056957808201518184015260208101905061054e565b50505050905090810190601f1680156105965780820380516001836020036101000a031916815260200191505b509250505060405180910390f35b3480156105b057600080fd5b506105f3600480360360208110156105c757600080fd5b81019080803573ffffffffffffffffffffffffffffffffffffffff169060200190929190505050610f05565b6040518080602001828103825283818151815260200191508051906020019080838360005b83811015610633578082015181840152602081019050610618565b50505050905090810190601f1680156106605780820380516001836020036101000a031916815260200191505b509250505060405180910390f35b34801561067a57600080fd5b50610683610f17565b604051808273ffffffffffffffffffffffffffffffffffffffff16815260200191505060405180910390f35b3480156106bb57600080fd5b506106c4610fb0565b6040518080602001828103825283818151815260200191508051906020019080838360005b838110156107045780820151818401526020810190506106e9565b50505050905090810190601f1680156107315780820380516001836020036101000a031916815260200191505b509250505060405180910390f35b34801561074b57600080fd5b506107c36004803603602081101561076257600080fd5b810190808035906020019064010000000081111561077f57600080fd5b82018360208201111561079157600080fd5b803590602001918460018302840111640100000000831117156107b357600080fd5b9091929391929390505050611052565b60405180821515815260200191505060405180910390f35b3480156107e757600080fd5b506107f06110a9565b6040518082815260200191505060405180910390f35b6108446040518060400160405280600381526020017f55524c00000000000000000000000000000000000000000000000000000000008152506110b0565b6005819055507f5351853e559f1cd2a310bf583962b4f04def4ad0a6ae5e41b300b2fa10662c1e6005546040518082815260200191505060405180910390a1606061088e8261143f565b6040516020018080612910603a9139603a0182805190602001908083835b602083106108cf57805182526020820191506020810190506020830392506108ac565b6001836020036101000a038019825116818451168082178552505050505050905001807f292e6861734b594300000000000000000000000000000000000000000000000081525060080191505060405160208183030381529060405290507f18d7185daabaec12aeca0c54a5d3a37eda3c6bb0b360ef3688245118e7a45dfd816040518080602001828103825283818151815260200191508051906020019080838360005b8381101561098f578082015181840152602081019050610974565b50505050905090810190601f1680156109bc5780820380516001836020036101000a031916815260200191505b509250505060405180910390a16000610a136040518060400160405280600381526020017f55524c00000000000000000000000000000000000000000000000000000000008152508367016345785d8a00006115fb565b90507f86a2c9f84ea8d5d77ce33d3691ba7647f7dddc09b67c7ef7a4958d2d501ae56d816040518082815260200191505060405180910390a1826009600083815260200190815260200160002060006101000a81548173ffffffffffffffffffffffffffffffffffffffff021916908373ffffffffffffffffffffffffffffffffffffffff160217905550505050565b8060069080519060200190610ab992919061284f565b507ffc219e99a6728389402facb7014db96e22ca0bcce4f2214d92386c9e7687f96460066040518080602001828103825283818154600181600116156101000203166002900481526020019150805460018160011615610100020316600290048015610b665780601f10610b3b57610100808354040283529160200191610b66565b820191906000526020600020905b815481529060010190602001808311610b4957829003601f168201915b50509250505060405180910390a180600860006009600086815260200190815260200160002060009054906101000a900473ffffffffffffffffffffffffffffffffffffffff1673ffffffffffffffffffffffffffffffffffffffff1673ffffffffffffffffffffffffffffffffffffffff1681526020019081526020016000209080519060200190610bfa92919061284f565b507fe054b028d32a06d1ff4bb56e2b232a6f2da57d2c800c34cd6bcd1d5aee68c4a46009600084815260200190815260200160002060009054906101000a900473ffffffffffffffffffffffffffffffffffffffff1682604051808373ffffffffffffffffffffffffffffffffffffffff16815260200180602001828103825283818151815260200191508051906020019080838360005b83811015610cad578082015181840152602081019050610c92565b50505050905090810190601f168015610cda5780820380516001836020036101000a031916815260200191505b50935050505060405180910390a15050565b610cf46128cf565b610cfd82611b4d565b9050919050565b6000801b600360008060001b815260200190815260200160002081905550505050565b60055481565b610d3681610806565b7f2c46985175a0d6605bd04528bfb41f6ecf39fc258cd9fe371e762a9ba71984b081604051808273ffffffffffffffffffffffffffffffffffffffff16815260200191505060405180910390a150565b6060600860008373ffffffffffffffffffffffffffffffffffffffff1673ffffffffffffffffffffffffffffffffffffffff1681526020019081526020016000208054600181600116156101000203166002900480601f016020809104026020016040519081016040528092919081815260200182805460018160011615610100020316600290048015610e5b5780601f10610e3057610100808354040283529160200191610e5b565b820191906000526020600020905b815481529060010190602001808311610e3e57829003601f168201915b50505050509050919050565b60068054600181600116156101000203166002900480601f016020809104026020016040519081016040528092919081815260200182805460018160011615610100020316600290048015610efd5780601f10610ed257610100808354040283529160200191610efd565b820191906000526020600020905b815481529060010190602001808311610ee057829003601f168201915b505050505081565b6060610f108261143f565b9050919050565b60007fa473875013ab62eb7f15ae95e4e7ae20ab8fcd3be95643bebcda5fc3a7d113ca600760009054906101000a900473ffffffffffffffffffffffffffffffffffffffff16604051808273ffffffffffffffffffffffffffffffffffffffff16815260200191505060405180910390a1600760009054906101000a900473ffffffffffffffffffffffffffffffffffffffff16905090565b606060068054600181600116156101000203166002900480601f0160208091040260200160405190810160405280929190818152602001828054600181600116156101000203166002900480156110485780601f1061101d57610100808354040283529160200191611048565b820191906000526020600020905b81548152906001019060200180831161102b57829003601f168201915b5050505050905090565b60006110a183838080601f016020809104026020016040519081016040528093929190818152602001838380828437600081840152601f19601f82011690508083019250505050505050611d00565b905092915050565b6202daf381565b60008073ffffffffffffffffffffffffffffffffffffffff16600160009054906101000a900473ffffffffffffffffffffffffffffffffffffffff1673ffffffffffffffffffffffffffffffffffffffff16148061113857506000611136600160009054906101000a900473ffffffffffffffffffffffffffffffffffffffff16611ecb565b145b15611149576111476000611ed6565b505b600160009054906101000a900473ffffffffffffffffffffffffffffffffffffffff1673ffffffffffffffffffffffffffffffffffffffff166338cc48316040518163ffffffff1660e01b8152600401602060405180830381600087803b1580156111b357600080fd5b505af11580156111c7573d6000803e3d6000fd5b505050506040513d60208110156111dd57600080fd5b810190808051906020019092919050505073ffffffffffffffffffffffffffffffffffffffff1660008054906101000a900473ffffffffffffffffffffffffffffffffffffffff1673ffffffffffffffffffffffffffffffffffffffff161461132557600160009054906101000a900473ffffffffffffffffffffffffffffffffffffffff1673ffffffffffffffffffffffffffffffffffffffff166338cc48316040518163ffffffff1660e01b8152600401602060405180830381600087803b1580156112aa57600080fd5b505af11580156112be573d6000803e3d6000fd5b505050506040513d60208110156112d457600080fd5b81019080805190602001909291905050506000806101000a81548173ffffffffffffffffffffffffffffffffffffffff021916908373ffffffffffffffffffffffffffffffffffffffff1602179055505b60008054906101000a900473ffffffffffffffffffffffffffffffffffffffff1673ffffffffffffffffffffffffffffffffffffffff1663524f3889836040518263ffffffff1660e01b81526004018080602001828103825283818151815260200191508051906020019080838360005b838110156113b1578082015181840152602081019050611396565b50505050905090810190601f1680156113de5780820380516001836020036101000a031916815260200191505b5092505050602060405180830381600087803b1580156113fd57600080fd5b505af1158015611411573d6000803e3d6000fd5b505050506040513d602081101561142757600080fd5b81019080805190602001909291905050509050919050565b606060008260601b90506060602867ffffffffffffffff8111801561146357600080fd5b506040519080825280601f01601f1916602001820160405280156114965781602001600182028036833780820191505090505b5090506000806000806000806114aa6128cf565b6114b38b611b4d565b905060005b601460ff168110156115e9578060130360080260020a8a60601c73ffffffffffffffffffffffffffffffffffffffff16816114ef57fe5b04975060108860ff16816114ff57fe5b049650866010028803955081816002026028811061151957fe5b6020020151945081600182600202016028811061153257fe5b602002015193506115438786611ee7565b925082870160f81b89826002028151811061155a57fe5b60200101907effffffffffffffffffffffffffffffffffffffffffffffffffffffffffffff1916908160001a9053506115938685611ee7565b925082860160f81b8960018360020201815181106115ad57fe5b60200101907effffffffffffffffffffffffffffffffffffffffffffffffffffffffffffff1916908160001a90535080806001019150506114b8565b50879950505050505050505050919050565b60008073ffffffffffffffffffffffffffffffffffffffff16600160009054906101000a900473ffffffffffffffffffffffffffffffffffffffff1673ffffffffffffffffffffffffffffffffffffffff16148061168357506000611681600160009054906101000a900473ffffffffffffffffffffffffffffffffffffffff16611ecb565b145b15611694576116926000611ed6565b505b600160009054906101000a900473ffffffffffffffffffffffffffffffffffffffff1673ffffffffffffffffffffffffffffffffffffffff166338cc48316040518163ffffffff1660e01b8152600401602060405180830381600087803b1580156116fe57600080fd5b505af1158015611712573d6000803e3d6000fd5b505050506040513d602081101561172857600080fd5b810190808051906020019092919050505073ffffffffffffffffffffffffffffffffffffffff1660008054906101000a900473ffffffffffffffffffffffffffffffffffffffff1673ffffffffffffffffffffffffffffffffffffffff161461187057600160009054906101000a900473ffffffffffffffffffffffffffffffffffffffff1673ffffffffffffffffffffffffffffffffffffffff166338cc48316040518163ffffffff1660e01b8152600401602060405180830381600087803b1580156117f557600080fd5b505af1158015611809573d6000803e3d6000fd5b505050506040513d602081101561181f57600080fd5b81019080805190602001909291905050506000806101000a81548173ffffffffffffffffffffffffffffffffffffffff021916908373ffffffffffffffffffffffffffffffffffffffff1602179055505b60008060009054906101000a900473ffffffffffffffffffffffffffffffffffffffff1673ffffffffffffffffffffffffffffffffffffffff16632ef3accc86856040518363ffffffff1660e01b81526004018080602001838152602001828103825284818151815260200191508051906020019080838360005b838110156119065780820151818401526020810190506118eb565b50505050905090810190601f1680156119335780820380516001836020036101000a031916815260200191505b509350505050602060405180830381600087803b15801561195357600080fd5b505af1158015611967573d6000803e3d6000fd5b505050506040513d602081101561197d57600080fd5b81019080805190602001909291905050509050823a02670de0b6b3a7640000018111156119b0576000801b915050611b46565b60008054906101000a900473ffffffffffffffffffffffffffffffffffffffff1673ffffffffffffffffffffffffffffffffffffffff1663c51be90f8260008888886040518663ffffffff1660e01b8152600401808581526020018060200180602001848152602001838103835286818151815260200191508051906020019080838360005b83811015611a51578082015181840152602081019050611a36565b50505050905090810190601f168015611a7e5780820380516001836020036101000a031916815260200191505b50838103825285818151815260200191508051906020019080838360005b83811015611ab7578082015181840152602081019050611a9c565b50505050905090810190601f168015611ae45780820380516001836020036101000a031916815260200191505b5096505050505050506020604051808303818588803b158015611b0657600080fd5b505af1158015611b1a573d6000803e3d6000fd5b50505050506040513d6020811015611b3157600080fd5b81019080805190602001909291905050509150505b9392505050565b611b556128cf565b60008260601b90506000611b6882611f19565b6040516020018082805190602001908083835b60208310611b9e5780518252602082019150602081019050602083039250611b7b565b6001836020036101000a03801982511681845116808217855250505050505090500191505060405160208183030381529060405280519060200120905060008060008060005b601460ff16811015611cf4576010878260148110611bfe57fe5b1a60f81b60f81c60ff1681611c0f57fe5b069350601084888360148110611c2157fe5b1a60f81b60f81c0360ff1681611c3357fe5b0494506010868260208110611c4457fe5b1a60f81b60f81c60ff1681611c5557fe5b069150601082878360208110611c6757fe5b1a60f81b60f81c0360ff1681611c7957fe5b04925060098560ff16118015611c92575060078360ff16115b888260020260288110611ca157fe5b60200201901515908115158152505060098460ff16118015611cc6575060078260ff16115b886001836002020160288110611cd857fe5b6020020190151590811515815250508080600101915050611be4565b50505050505050919050565b600080611d0c83612094565b9050600073ffffffffffffffffffffffffffffffffffffffff168173ffffffffffffffffffffffffffffffffffffffff161415611dcf57606083905060005b8151811015611dcc577f3000000000000000000000000000000000000000000000000000000000000000828281518110611d8157fe5b602001015160f81c60f81b7effffffffffffffffffffffffffffffffffffffffffffffffffffffffffffff191614611dbf5760009350505050611ec6565b8080600101915050611d4b565b50505b6060611dda8261143f565b9050836040516020018082805190602001908083835b60208310611e135780518252602082019150602081019050602083039250611df0565b6001836020036101000a03801982511681845116808217855250505050505090500191505060405160208183030381529060405280519060200120816040516020018082805190602001908083835b60208310611e855780518252602082019150602081019050602083039250611e62565b6001836020036101000a0380198251168184511680821785525050505050509050019150506040516020818303038152906040528051906020012014925050505b919050565b6000813b9050919050565b6000611ee06122de565b9050919050565b6000600a8360ff161015611efe5760309050611f13565b8115611f0d5760379050611f12565b605790505b5b92915050565b606080602867ffffffffffffffff81118015611f3457600080fd5b506040519080825280601f01601f191660200182016040528015611f675781602001600182028036833780820191505090505b509050600080600080600090505b601460ff16811015612087578060130360080260020a8760601c73ffffffffffffffffffffffffffffffffffffffff1681611fac57fe5b04935060108460ff1681611fbc57fe5b0492508260100284039150600a8360ff1610611fd9576057611fdc565b60305b830160f81b858260020281518110611ff057fe5b60200101907effffffffffffffffffffffffffffffffffffffffffffffffffffffffffffff1916908160001a905350600a8260ff1610612031576057612034565b60305b820160f81b85600183600202018151811061204b57fe5b60200101907effffffffffffffffffffffffffffffffffffffffffffffffffffffffffffff1916908160001a9053508080600101915050611f75565b5083945050505050919050565b600060608290506060601467ffffffffffffffff811180156120b557600080fd5b506040519080825280601f01601f1916602001820160405280156120e85781602001600182028036833780820191505090505b50905060008060006028855114156122d35760005b602881101561225a5785818151811061211257fe5b602001015160f81c60f81b60f81c935060308460ff16101561213d57600096505050505050506122d9565b8360ff166039108015612153575060418460ff16105b1561216757600096505050505050506122d9565b8360ff16604610801561217d575060618460ff16105b1561219157600096505050505050506122d9565b8360ff16606610156121ac57600096505050505050506122d9565b60418460ff1610156121c157603091506121dc565b8360ff16604610156121d657605791506121db565b603791505b5b6000600282816121e857fe5b0614156121f957818403925061224d565b818403836010020160f81b856002600184038161221257fe5b048151811061221d57fe5b60200101907effffffffffffffffffffffffffffffffffffffffffffffffffffffffffffff1916908160001a9053505b80806001019150506120fd565b506060846040516020018082805190602001908083835b602083106122945780518252602082019150602081019050602083039250612271565b6001836020036101000a038019825116818451168082178552505050505050905001915050604051602081830303815290604052905060148101519650505b50505050505b919050565b6000806122fe731d3b2638a7cc9f2cb3d298a3da7a90b67e5506ed611ecb565b11156123a057731d3b2638a7cc9f2cb3d298a3da7a90b67e5506ed600160006101000a81548173ffffffffffffffffffffffffffffffffffffffff021916908373ffffffffffffffffffffffffffffffffffffffff1602179055506123976040518060400160405280600b81526020017f6574685f6d61696e6e6574000000000000000000000000000000000000000000815250612835565b60019050612832565b60006123bf73c03a2615d5efaf5f49f60b7bb6583eaec212fdf1611ecb565b11156124615773c03a2615d5efaf5f49f60b7bb6583eaec212fdf1600160006101000a81548173ffffffffffffffffffffffffffffffffffffffff021916908373ffffffffffffffffffffffffffffffffffffffff1602179055506124586040518060400160405280600c81526020017f6574685f726f707374656e330000000000000000000000000000000000000000815250612835565b60019050612832565b600061248073b7a07bcf2ba2f2703b24c0691b5278999c59ac7e611ecb565b11156125225773b7a07bcf2ba2f2703b24c0691b5278999c59ac7e600160006101000a81548173ffffffffffffffffffffffffffffffffffffffff021916908373ffffffffffffffffffffffffffffffffffffffff1602179055506125196040518060400160405280600981526020017f6574685f6b6f76616e0000000000000000000000000000000000000000000000815250612835565b60019050612832565b600061254173146500cfd35b22e4a392fe0adc06de1a1368ed48611ecb565b11156125e35773146500cfd35b22e4a392fe0adc06de1a1368ed48600160006101000a81548173ffffffffffffffffffffffffffffffffffffffff021916908373ffffffffffffffffffffffffffffffffffffffff1602179055506125da6040518060400160405280600b81526020017f6574685f72696e6b656279000000000000000000000000000000000000000000815250612835565b60019050612832565b600061260273a2998efd205fb9d4b4963afb70778d6354ad3a41611ecb565b11156126a45773a2998efd205fb9d4b4963afb70778d6354ad3a41600160006101000a81548173ffffffffffffffffffffffffffffffffffffffff021916908373ffffffffffffffffffffffffffffffffffffffff16021790555061269b6040518060400160405280600a81526020017f6574685f676f65726c6900000000000000000000000000000000000000000000815250612835565b60019050612832565b60006126c3736f485c8bf6fc43ea212e93bbf8ce046c7f1cb475611ecb565b111561272757736f485c8bf6fc43ea212e93bbf8ce046c7f1cb475600160006101000a81548173ffffffffffffffffffffffffffffffffffffffff021916908373ffffffffffffffffffffffffffffffffffffffff16021790555060019050612832565b60006127467320e12a1f859b3feae5fb2a0a32c18f5a65555bbf611ecb565b11156127aa577320e12a1f859b3feae5fb2a0a32c18f5a65555bbf600160006101000a81548173ffffffffffffffffffffffffffffffffffffffff021916908373ffffffffffffffffffffffffffffffffffffffff16021790555060019050612832565b60006127c97351efaf4c8b3c9afbd5ab9f4bbc82784ab6ef8faa611ecb565b111561282d577351efaf4c8b3c9afbd5ab9f4bbc82784ab6ef8faa600160006101000a81548173ffffffffffffffffffffffffffffffffffffffff021916908373ffffffffffffffffffffffffffffffffffffffff16021790555060019050612832565b600090505b90565b806002908051906020019061284b92919061284f565b5050565b828054600181600116156101000203166002900490600052602060002090601f016020900481019282601f1061289057805160ff19168380011785556128be565b828001600101855582156128be579182015b828111156128bd5782518255916020019190600101906128a2565b5b5090506128cb91906128f2565b5090565b604051806105000160405280602890602082028036833780820191505090505090565b5b8082111561290b5760008160009055506001016128f3565b509056fe6a736f6e2868747470733a2f2f6d792d6a736f6e2d7365727665722e74797069636f64652e636f6d2f6375746562657272792f64656d6f2f3078a26469706673582212206e3bacbd7f3fd6dd22b631c38bd0ff45ed07bd157f67740619734a54c29d090664736f6c634300060c0033",
  "immutableReferences": {},
  "source": "// SPDX-License-Identifier: MIT\npragma solidity >0.6.1 <0.9.0;\n\n//import \"https://github.com/oraclize/ethereum-api/oraclizeAPI_0.5.sol\";\n\nimport \"./imported/provableAPI.sol\"; \n\ncontract KYCValidatorWithAPICall is usingProvable {\n    uint constant public gasLimit = 187123;\n    uint256 public priceOfUrl;\n    string public temp;\n    \n    address private owner;\n\n    // This keeps the record on whether the address is KYCed by CB. \n    // It can be expanded to the latest date the user is verified. \n    mapping(address => string) private validatorMap;\n    \n    mapping(bytes32=>address) validIds;\n\n    event logResult(string result); \n\n    event logGetAddress(address addr);\n\n    event logGetOwner(address owner);\n\n    event logValidate(address addr, string validated);\n    \n    event logRegisterAddressStart(address target);\n    \n    event logRegisterAddressEnd(address target, string validated);\n    \n    event logNewProvableQuery(string result);\n\n    event logAPIResult(string result);\n    \n    event logQueryId(bytes32 queryId);\n    \n    event logQuery(string query);\n\n    event logPrice(uint256 price); \n\n    //public function to get the address of the owner.\n    function getOwner () public returns (address) {\n        emit logGetOwner(owner);\n        return owner;\n    }\n    \n    constructor() public payable{\n        owner = msg.sender;\n\n        // Ropsten test net \n        provable_setCustomGasPrice(4000001234);\n        OAR = OracleAddrResolverI(0xc03A2615D5efaf5F49F60B7BB6583eaec212fdf1);\n    }\n    \n    //public function to update the KYC status of an addtress\n    //Within the funciton, it will check whehter the request is coming from CB.\n    function retrieveKYC (address targetAddr) public payable{\n        //require(owner == msg.sender); \n        retrieveKYCData(targetAddr);\n        emit logRegisterAddressStart(targetAddr);\n        //todo: charge gas from target\n    }\n\n    //public function to validate the target address \n    //Within the funciton, it will check whehter the request is coming from CB.\n    function hasKYC (address targetAddr) public view returns (string memory) {\n        //require(owner == msg.sender); \n        //todo: charge gas from target\n\n        //emit logValidate(targetAddr, validatorMap[targetAddr]);\n        return validatorMap[targetAddr];\n    }\n    function getTemp () public view returns (string memory) {\n        //require(owner == msg.sender); \n        //todo: charge gas from target\n\n        //emit logValidate(targetAddr, validatorMap[targetAddr]);\n        return temp;\n    }\n\n    function retrieveKYCData (address targetAddr) public payable\n    {\n        // if (provable_getPrice(\"URL\") > address(this).balance) {\n        //     emit logNewProvableQuery(\"Provable query was NOT sent, please add some ETH to cover for the query fee\");\n        // } else {\n        //     emit logNewProvableQuery(\"Provable query was sent, standing by for the answer..\");\n            //bytes32 queryId = provable_query(\"URL\", \"json(https://api.pro.coinbase.com/products/ETH-USD/ticker).price\");\n            //bytes32 queryId = provabe_query(\"URL\", \"json(https://retoolapi.dev/3ZrGtV/data/1).passedIDV\");\n            \n            //https://my-json-server.typicode.com/cuteberry/demo/address1\n\n            priceOfUrl = provable_getPrice(\"URL\");\n            emit logPrice(priceOfUrl);\n            string memory urlStr = string(abi.encodePacked(\"json(https://my-json-server.typicode.com/cuteberry/demo/0x\", _toChecksumString(targetAddr), \").hasKYC\"));\n            emit logQuery(urlStr);\n            bytes32 queryId = provable_query(\"URL\", urlStr, 100000000000000000);\n            emit logQueryId(queryId);\n            validIds[queryId] = targetAddr;\n        // }\n    }\n    function __callback (\n        bytes32 _myid,\n        string memory _result\n    )\n        public override\n    {\n        //require(msg.sender == provable_cbAddress());\n        temp = _result;\n        emit logAPIResult(temp);\n        validatorMap[validIds[_myid]] = _result;\n        emit logRegisterAddressEnd(validIds[_myid], _result);\n        //delete validIds[_myid];\n    }\n    function toAsciiString(address x) internal pure returns (string memory) {\n        bytes memory s = new bytes(40);\n        for (uint i = 0; i < 20; i++) {\n            bytes1 b = bytes1(uint8(uint(uint160(x)) / (2**(8*(19 - i)))));\n            bytes1 hi = bytes1(uint8(b) / 16);\n            bytes1 lo = bytes1(uint8(b) - 16 * uint8(hi));\n            s[2*i] = char(hi);\n            s[2*i+1] = char(lo);            \n        }\n        return string(s);\n    }\n    function char(bytes1 b) internal pure returns (bytes1 c) {\n        if (uint8(b) < 10) return bytes1(uint8(b) + 0x30);\n        else return bytes1(uint8(b) + 0x57);\n    }\n\n    // This contract keeps all Ether sent to it with no way\n    // to get it back.\n    fallback() external payable {}\n\n    receive() external payable {\n        // custom function code\n    }\n\n    /**\n   * @dev Get a checksummed string hex representation of an account address.\n   * @param account address The account to get the checksum for.\n   * @return accountChecksum The checksummed account string in ASCII format. Note that leading\n   * \"0x\" is not included.\n   */\n  function getChecksum(\n    address account\n  ) public pure returns (string memory accountChecksum) {\n    // call internal function for converting an account to a checksummed string.\n    return _toChecksumString(account);\n  }\n\n  /**\n   * @dev Get a fixed-size array of whether or not each character in an account\n   * will be capitalized in the checksum.\n   * @param account address The account to get the checksum capitalization\n   * information for.\n   * @return characterCapitalized A fixed-size array of booleans that signify if each character or\n   * \"nibble\" of the hex encoding of the address will be capitalized by the\n   * checksum.\n   */\n  function getChecksumCapitalizedCharacters(\n    address account\n  ) external pure returns (bool[40] memory characterCapitalized) {\n    // call internal function for computing characters capitalized in checksum.\n    return _toChecksumCapsFlags(account);\n  }\n\n  /**\n   * @dev Determine whether a string hex representation of an account address\n   * matches the ERC-55 checksum of that address.\n   * @param accountChecksum string The checksummed account string in ASCII\n   * format. Note that a leading \"0x\" MUST NOT be included.\n   * @return ok A boolean signifying whether or not the checksum is valid.\n   */\n  function isChecksumValid(\n    string calldata accountChecksum\n  ) external pure returns (bool ok) {\n    // call internal function for validating checksum strings.\n    return _isChecksumValid(accountChecksum);\n  }\n\n  function _toChecksumString(\n    address account\n  ) internal pure returns (string memory asciiString) {\n    // convert the account argument from address to bytes.\n    bytes20 data = bytes20(account);\n\n    // create an in-memory fixed-size bytes array.\n    bytes memory asciiBytes = new bytes(40);\n\n    // declare variable types.\n    uint8 b;\n    uint8 leftNibble;\n    uint8 rightNibble;\n    bool leftCaps;\n    bool rightCaps;\n    uint8 asciiOffset;\n\n    // get the capitalized characters in the actual checksum.\n    bool[40] memory caps = _toChecksumCapsFlags(account);\n\n    // iterate over bytes, processing left and right nibble in each iteration.\n    for (uint256 i = 0; i < data.length; i++) {\n      // locate the byte and extract each nibble.\n      b = uint8(uint160(data) / (2**(8*(19 - i))));\n      leftNibble = b / 16;\n      rightNibble = b - 16 * leftNibble;\n\n      // locate and extract each capitalization status.\n      leftCaps = caps[2*i];\n      rightCaps = caps[2*i + 1];\n\n      // get the offset from nibble value to ascii character for left nibble.\n      asciiOffset = _getAsciiOffset(leftNibble, leftCaps);\n\n      // add the converted character to the byte array.\n      asciiBytes[2 * i] = byte(leftNibble + asciiOffset);\n\n      // get the offset from nibble value to ascii character for right nibble.\n      asciiOffset = _getAsciiOffset(rightNibble, rightCaps);\n\n      // add the converted character to the byte array.\n      asciiBytes[2 * i + 1] = byte(rightNibble + asciiOffset);\n    }\n\n    return string(asciiBytes);\n  }\n\n  function _toChecksumCapsFlags(address account) internal pure returns (\n    bool[40] memory characterCapitalized\n  ) {\n    // convert the address to bytes.\n    bytes20 a = bytes20(account);\n\n    // hash the address (used to calculate checksum).\n    bytes32 b = keccak256(abi.encodePacked(_toAsciiString(a)));\n\n    // declare variable types.\n    uint8 leftNibbleAddress;\n    uint8 rightNibbleAddress;\n    uint8 leftNibbleHash;\n    uint8 rightNibbleHash;\n\n    // iterate over bytes, processing left and right nibble in each iteration.\n    for (uint256 i; i < a.length; i++) {\n      // locate the byte and extract each nibble for the address and the hash.\n      rightNibbleAddress = uint8(a[i]) % 16;\n      leftNibbleAddress = (uint8(a[i]) - rightNibbleAddress) / 16;\n      rightNibbleHash = uint8(b[i]) % 16;\n      leftNibbleHash = (uint8(b[i]) - rightNibbleHash) / 16;\n\n      characterCapitalized[2 * i] = (\n        leftNibbleAddress > 9 &&\n        leftNibbleHash > 7\n      );\n      characterCapitalized[2 * i + 1] = (\n        rightNibbleAddress > 9 &&\n        rightNibbleHash > 7\n      );\n    }\n  }\n\n  function _isChecksumValid(\n    string memory provided\n  ) internal pure returns (bool ok) {\n    // convert the provided string into account type.\n    address account = _toAddress(provided);\n\n    // return false in the event the account conversion returned null address.\n    if (\n      account == address(0)\n    ) {\n      // ensure that provided address is not also the null address first.\n      bytes memory b = bytes(provided);\n      for (uint256 i; i < b.length; i++) {\n        if (b[i] != hex\"30\") {\n          return false;\n        }\n      }\n    }\n\n    // get the capitalized characters in the actual checksum.\n    string memory actual = _toChecksumString(account);\n\n    // compare provided string to actual checksum string to test for validity.\n    return (\n      keccak256(\n        abi.encodePacked(\n          actual\n        )\n      ) == keccak256(\n        abi.encodePacked(\n          provided\n        )\n      )\n    );\n  }\n\n  function _getAsciiOffset(\n    uint8 nibble, bool caps\n  ) internal pure returns (uint8 offset) {\n    // to convert to ascii characters, add 48 to 0-9, 55 to A-F, & 87 to a-f.\n    if (nibble < 10) {\n      offset = 48;\n    } else if (caps) {\n      offset = 55;\n    } else {\n      offset = 87;\n    }\n  }\n\n  function _toAddress(\n    string memory account\n  ) internal pure returns (address accountAddress) {\n    // convert the account argument from address to bytes.\n    bytes memory accountBytes = bytes(account);\n\n    // create a new fixed-size byte array for the ascii bytes of the address.\n    bytes memory accountAddressBytes = new bytes(20);\n\n    // declare variable types.\n    uint8 b;\n    uint8 nibble;\n    uint8 asciiOffset;\n\n    // only proceed if the provided string has a length of 40.\n    if (accountBytes.length == 40) {\n      for (uint256 i; i < 40; i++) {\n        // get the byte in question.\n        b = uint8(accountBytes[i]);\n\n        // ensure that the byte is a valid ascii character (0-9, A-F, a-f)\n        if (b < 48) return address(0);\n        if (57 < b && b < 65) return address(0);\n        if (70 < b && b < 97) return address(0);\n        if (102 < b) return address(0); //bytes(hex\"\");\n\n        // find the offset from ascii encoding to the nibble representation.\n        if (b < 65) { // 0-9\n          asciiOffset = 48;\n        } else if (70 < b) { // a-f\n          asciiOffset = 87;\n        } else { // A-F\n          asciiOffset = 55;\n        }\n\n        // store left nibble on even iterations, then store byte on odd ones.\n        if (i % 2 == 0) {\n          nibble = b - asciiOffset;\n        } else {\n          accountAddressBytes[(i - 1) / 2] = (\n            byte(16 * nibble + (b - asciiOffset)));\n        }\n      }\n\n      // pack up the fixed-size byte array and cast it to accountAddress.\n      bytes memory packed = abi.encodePacked(accountAddressBytes);\n      assembly {\n        accountAddress := mload(add(packed, 20))\n      }\n    }\n  }\n\n  // based on https://ethereum.stackexchange.com/a/56499/48410\n  function _toAsciiString(\n    bytes20 data\n  ) internal pure returns (string memory asciiString) {\n    // create an in-memory fixed-size bytes array.\n    bytes memory asciiBytes = new bytes(40);\n\n    // declare variable types.\n    uint8 b;\n    uint8 leftNibble;\n    uint8 rightNibble;\n\n    // iterate over bytes, processing left and right nibble in each iteration.\n    for (uint256 i = 0; i < data.length; i++) {\n      // locate the byte and extract each nibble.\n      b = uint8(uint160(data) / (2 ** (8 * (19 - i))));\n      leftNibble = b / 16;\n      rightNibble = b - 16 * leftNibble;\n\n      // to convert to ascii characters, add 48 to 0-9 and 87 to a-f.\n      asciiBytes[2 * i] = byte(leftNibble + (leftNibble < 10 ? 48 : 87));\n      asciiBytes[2 * i + 1] = byte(rightNibble + (rightNibble < 10 ? 48 : 87));\n    }\n\n    return string(asciiBytes);\n  }\n}\n\n",
  "sourcePath": "/Users/mei/cryptostudy/kyc-validator2/contracts/KYCValidatorWithAPICall.sol",
  "compiler": {
    "name": "solc",
    "version": "0.6.12+commit.27d51765.Emscripten.clang"
  },
  "schemaVersion": "3.4.3",
  "updatedAt": "2021-12-11T20:06:49.816Z",
  "networkType": "ethereum",
  "devdoc": {
    "kind": "dev",
    "methods": {
      "__callback(bytes32,string)": {
        "details": "The following `__callback` functions are just placeholders ideally      meant to be defined in child contract when proofs are used.      The function bodies simply silence compiler warnings."
      },
      "getChecksum(address)": {
        "details": "Get a checksummed string hex representation of an account address.",
        "params": {
          "account": "address The account to get the checksum for."
        },
        "returns": {
          "accountChecksum": "The checksummed account string in ASCII format. Note that leading \"0x\" is not included."
        }
      },
      "getChecksumCapitalizedCharacters(address)": {
        "details": "Get a fixed-size array of whether or not each character in an account will be capitalized in the checksum.",
        "params": {
          "account": "address The account to get the checksum capitalization information for."
        },
        "returns": {
          "characterCapitalized": "A fixed-size array of booleans that signify if each character or \"nibble\" of the hex encoding of the address will be capitalized by the checksum."
        }
      },
      "isChecksumValid(string)": {
        "details": "Determine whether a string hex representation of an account address matches the ERC-55 checksum of that address.",
        "params": {
          "accountChecksum": "string The checksummed account string in ASCII format. Note that a leading \"0x\" MUST NOT be included."
        },
        "returns": {
          "ok": "A boolean signifying whether or not the checksum is valid."
        }
      }
    },
    "version": 1
  },
  "userdoc": {
    "kind": "user",
    "methods": {},
    "version": 1
  }
}